{
  "contractName": "AssetManagement",
  "abi": [
    {
      "inputs": [],
      "payable": false,
      "stateMutability": "nonpayable",
      "type": "constructor"
    },
    {
      "anonymous": false,
      "inputs": [
        {
          "indexed": true,
          "name": "add",
          "type": "address"
        },
        {
          "indexed": false,
          "name": "role",
          "type": "int256"
        }
      ],
      "name": "addressRegistered",
      "type": "event"
    },
    {
      "anonymous": false,
      "inputs": [
        {
          "indexed": true,
          "name": "add",
          "type": "address"
        },
        {
          "indexed": false,
          "name": "hash",
          "type": "uint256"
        },
        {
          "indexed": false,
          "name": "name",
          "type": "string"
        },
        {
          "indexed": false,
          "name": "timestamp",
          "type": "uint256"
        },
        {
          "indexed": false,
          "name": "status",
          "type": "int256"
        }
      ],
      "name": "docRegistered",
      "type": "event"
    },
    {
      "anonymous": false,
      "inputs": [
        {
          "indexed": true,
          "name": "add",
          "type": "address"
        },
        {
          "indexed": false,
          "name": "hash",
          "type": "uint256"
        },
        {
          "indexed": false,
          "name": "name",
          "type": "string"
        },
        {
          "indexed": false,
          "name": "status",
          "type": "int256"
        }
      ],
      "name": "docApproved",
      "type": "event"
    },
    {
      "anonymous": false,
      "inputs": [
        {
          "indexed": true,
          "name": "add",
          "type": "address"
        },
        {
          "indexed": false,
          "name": "hash",
          "type": "uint256"
        },
        {
          "indexed": false,
          "name": "name",
          "type": "string"
        },
        {
          "indexed": false,
          "name": "status",
          "type": "int256"
        }
      ],
      "name": "docRefused",
      "type": "event"
    },
    {
      "anonymous": false,
      "inputs": [
        {
          "indexed": true,
          "name": "add",
          "type": "address"
        },
        {
          "indexed": false,
          "name": "hash",
          "type": "uint256"
        },
        {
          "indexed": false,
          "name": "name",
          "type": "string"
        },
        {
          "indexed": false,
          "name": "timestamp",
          "type": "uint256"
        },
        {
          "indexed": false,
          "name": "status",
          "type": "int256"
        }
      ],
      "name": "newVersion",
      "type": "event"
    },
    {
      "constant": false,
      "inputs": [
        {
          "name": "_add",
          "type": "address"
        },
        {
          "name": "_type",
          "type": "int256"
        }
      ],
      "name": "addAddress",
      "outputs": [],
      "payable": false,
      "stateMutability": "nonpayable",
      "type": "function"
    },
    {
      "constant": false,
      "inputs": [
        {
          "name": "_hash",
          "type": "uint256"
        },
        {
          "name": "_name",
          "type": "string"
        },
        {
          "name": "_timestamp",
          "type": "uint256"
        },
        {
          "name": "_hashP",
          "type": "uint256"
        }
      ],
      "name": "insertDoc",
      "outputs": [],
      "payable": false,
      "stateMutability": "nonpayable",
      "type": "function"
    },
    {
      "constant": false,
      "inputs": [
        {
          "name": "_hash",
          "type": "uint256"
        },
        {
          "name": "_name",
          "type": "string"
        },
        {
          "name": "_timestamp",
          "type": "uint256"
        }
      ],
      "name": "inserNewDoc",
      "outputs": [],
      "payable": false,
      "stateMutability": "nonpayable",
      "type": "function"
    },
    {
      "constant": false,
      "inputs": [
        {
          "name": "_hash",
          "type": "uint256"
        }
      ],
      "name": "approvedDoc",
      "outputs": [],
      "payable": false,
      "stateMutability": "nonpayable",
      "type": "function"
    },
    {
      "constant": false,
      "inputs": [
        {
          "name": "_hash",
          "type": "uint256"
        }
      ],
      "name": "refusedDoc",
      "outputs": [],
      "payable": false,
      "stateMutability": "nonpayable",
      "type": "function"
    },
    {
      "constant": true,
      "inputs": [
        {
          "name": "_address",
          "type": "address"
        }
      ],
      "name": "getRole",
      "outputs": [
        {
          "name": "",
          "type": "int256"
        }
      ],
      "payable": false,
      "stateMutability": "view",
      "type": "function"
    },
    {
      "constant": true,
      "inputs": [
        {
          "name": "_hash",
          "type": "uint256"
        }
      ],
      "name": "getDoc",
      "outputs": [
        {
          "name": "",
          "type": "string"
        },
        {
          "name": "",
          "type": "uint256"
        },
        {
          "name": "",
          "type": "int256"
        },
        {
          "name": "",
          "type": "uint256"
        }
      ],
      "payable": false,
      "stateMutability": "view",
      "type": "function"
    }
  ],
  "bytecode": "0x6060604052341561000f57600080fd5b33600260006101000a81548173ffffffffffffffffffffffffffffffffffffffff021916908373ffffffffffffffffffffffffffffffffffffffff160217905550610d008061005f6000396000f300606060405260043610610083576000357c0100000000000000000000000000000000000000000000000000000000900463ffffffff1680631815219f146100885780632ba665e51461010057806344276733146101b1578063593c7b97146101fe57806359c77a1b1461022157806371c1262f14610263578063f73329a5146102d2575b600080fd5b341561009357600080fd5b6100fe600480803590602001909190803590602001908201803590602001908080601f016020809104026020016040519081016040528093929190818152602001838380828437820191505050505050919080359060200190919080359060200190919050506102f5565b005b341561010b57600080fd5b610121600480803590602001909190505061063a565b6040518080602001858152602001848152602001838152602001828103825286818151815260200191508051906020019080838360005b83811015610173578082015181840152602081019050610158565b50505050905090810190601f1680156101a05780820380516001836020036101000a031916815260200191505b509550505050505060405180910390f35b34156101bc57600080fd5b6101e8600480803573ffffffffffffffffffffffffffffffffffffffff16906020019091905050610749565b6040518082815260200191505060405180910390f35b341561020957600080fd5b61021f6004808035906020019091905050610792565b005b341561022c57600080fd5b610261600480803573ffffffffffffffffffffffffffffffffffffffff16906020019091908035906020019091905050610907565b005b341561026e57600080fd5b6102d0600480803590602001909190803590602001908201803590602001908080601f01602080910402602001604051908101604052809392919081815260200183838082843782019150505050505091908035906020019091905050610a47565b005b34156102dd57600080fd5b6102f36004808035906020019091905050610aa6565b005b60018060003373ffffffffffffffffffffffffffffffffffffffff1673ffffffffffffffffffffffffffffffffffffffff1681526020019081526020016000205414151561034257600080fd5b60008060008681526020019081526020016000206001015414151561036657600080fd5b608060405190810160405280848152602001838152602001600081526020018281525060008086815260200190815260200160002060008201518160000190805190602001906103b7929190610c1b565b50602082015181600101556040820151816002015560608201518160030155905050600081141561050d573373ffffffffffffffffffffffffffffffffffffffff167fde73c6d14cc453f6b32a78ed3fd931d643ca208227fbd3a95719da6a27c5102d85600080888152602001908152602001600020600001600080898152602001908152602001600020600101546000808a81526020019081526020016000206002015460405180858152602001806020018481526020018381526020018281038252858181546001816001161561010002031660029004815260200191508054600181600116156101000203166002900480156104f75780601f106104cc576101008083540402835291602001916104f7565b820191906000526020600020905b8154815290600101906020018083116104da57829003601f168201915b50509550505050505060405180910390a2610634565b3373ffffffffffffffffffffffffffffffffffffffff167f268c43e4acfb5d720b60e61684561107858bc1ea3c88bdb572fc518c96e166ad85600080888152602001908152602001600020600001600080898152602001908152602001600020600101546000808a81526020019081526020016000206002015460405180858152602001806020018481526020018381526020018281038252858181546001816001161561010002031660029004815260200191508054600181600116156101000203166002900480156106225780601f106105f757610100808354040283529160200191610622565b820191906000526020600020905b81548152906001019060200180831161060557829003601f168201915b50509550505050505060405180910390a25b50505050565b610642610c9b565b6000806000806000868152602001908152602001600020600001600080878152602001908152602001600020600101546000808881526020019081526020016000206002015460008089815260200190815260200160002060030154838054600181600116156101000203166002900480601f0160208091040260200160405190810160405280929190818152602001828054600181600116156101000203166002900480156107335780601f1061070857610100808354040283529160200191610733565b820191906000526020600020905b81548152906001019060200180831161071657829003601f168201915b5050505050935093509350935093509193509193565b6000600160008373ffffffffffffffffffffffffffffffffffffffff1673ffffffffffffffffffffffffffffffffffffffff168152602001908152602001600020549050919050565b6002600160003373ffffffffffffffffffffffffffffffffffffffff1673ffffffffffffffffffffffffffffffffffffffff168152602001908152602001600020541415156107e057600080fd5b6002600080838152602001908152602001600020600201819055503373ffffffffffffffffffffffffffffffffffffffff167f7e6d85bc066ad4cacd7da2c525375f79bdf760df282f4d2523595fb1c4c87be6826000808581526020019081526020016000206000016000808681526020019081526020016000206002015460405180848152602001806020018381526020018281038252848181546001816001161561010002031660029004815260200191508054600181600116156101000203166002900480156108f45780601f106108c9576101008083540402835291602001916108f4565b820191906000526020600020905b8154815290600101906020018083116108d757829003601f168201915b505094505050505060405180910390a250565b600260009054906101000a900473ffffffffffffffffffffffffffffffffffffffff1673ffffffffffffffffffffffffffffffffffffffff163373ffffffffffffffffffffffffffffffffffffffff1614151561096357600080fd5b6000600160008473ffffffffffffffffffffffffffffffffffffffff1673ffffffffffffffffffffffffffffffffffffffff168152602001908152602001600020541415156109b157600080fd5b80600160008473ffffffffffffffffffffffffffffffffffffffff1673ffffffffffffffffffffffffffffffffffffffff168152602001908152602001600020819055503373ffffffffffffffffffffffffffffffffffffffff167fb7cf4bbf0b3888e8ec272f4ea7d29872caba6d354451d1a65f516c3a1400142f826040518082815260200191505060405180910390a25050565b60018060003373ffffffffffffffffffffffffffffffffffffffff1673ffffffffffffffffffffffffffffffffffffffff16815260200190815260200160002054141515610a9457600080fd5b610aa183838360006102f5565b505050565b6002600160003373ffffffffffffffffffffffffffffffffffffffff1673ffffffffffffffffffffffffffffffffffffffff16815260200190815260200160002054141515610af457600080fd5b6001600080838152602001908152602001600020600201819055503373ffffffffffffffffffffffffffffffffffffffff167fae981558f2896261c7feb2a5f5da8c9c4258ddbfb7b35011d3e2ff2c7a62339582600080858152602001908152602001600020600001600080868152602001908152602001600020600201546040518084815260200180602001838152602001828103825284818154600181600116156101000203166002900481526020019150805460018160011615610100020316600290048015610c085780601f10610bdd57610100808354040283529160200191610c08565b820191906000526020600020905b815481529060010190602001808311610beb57829003601f168201915b505094505050505060405180910390a250565b828054600181600116156101000203166002900490600052602060002090601f016020900481019282601f10610c5c57805160ff1916838001178555610c8a565b82800160010185558215610c8a579182015b82811115610c89578251825591602001919060010190610c6e565b5b509050610c979190610caf565b5090565b602060405190810160405280600081525090565b610cd191905b80821115610ccd576000816000905550600101610cb5565b5090565b905600a165627a7a7230582042374642368fd12d6c2b2896065f05d1812f9ef14c9f362c351cc44f6f5f9e450029",
  "source": "pragma solidity ^0.4.18;\n\ncontract AssetManagement {\n   /*\n   \n   Status:\n   0 = \"DRAFT\"\n   1 = \"APPROVED\"\n   2 = \"REFUSED\"\n   \n   */\n  struct DocSruct {\n   string name;\n   uint timestamp;\n   int status;\n   uint originalDoc;\n   }\n\n   mapping(uint => DocSruct) private documents;\n   mapping(address => int) private roles;\n   \n   address admin;\n   \n   event addressRegistered(address indexed add, int role);\n   event docRegistered(address indexed add, uint hash,  string name, uint timestamp, int status);\n   event docApproved(address indexed add, uint hash, string name, int status);\n   event docRefused(address indexed add, uint hash, string name, int status);\n   event newVersion(address indexed add, uint hash,  string name, uint timestamp, int status);\n   \n   \n   function AssetManagement() public{\n       admin = msg.sender;\n   }\n   \n   modifier onlyAdmin {\n       require(msg.sender == admin);\n       _;\n   }\n   \n   modifier onlyAssetManagers {\n       require(roles[msg.sender] == 1);\n\t _;\n   }\n   \n   modifier onlyRegulators {\n       require(roles[msg.sender] == 2);\n\t_;\n   }\n   \n   modifier onlyDistributors {\n       require(roles[msg.sender] == 3); _;\n   }\n   \n   function addAddress(address _add, int _type) public onlyAdmin{\n       if(roles[_add] != 0) revert();\n       roles[_add] = _type;\n       addressRegistered(msg.sender, _type);\n   }\n   \n   function insertDoc(uint _hash, string _name, uint _timestamp, uint _hashP) public onlyAssetManagers{\n       if(documents[_hash].timestamp != 0) revert();\n       documents[_hash] = DocSruct(_name, _timestamp, 0, _hashP);\n       if(_hashP == 0){\n           docRegistered(msg.sender, _hash, documents[_hash].name, documents[_hash].timestamp, documents[_hash].status);\n       }else{\n           newVersion(msg.sender, _hash, documents[_hash].name, documents[_hash].timestamp, documents[_hash].status);\n       }\n   }\n   \n   function inserNewDoc(uint _hash, string _name, uint _timestamp) public onlyAssetManagers{\n      insertDoc(_hash, _name,_timestamp, 0);\n   }\n   \n   function approvedDoc(uint _hash) public onlyRegulators{\n       documents[_hash].status = 1;\n       docApproved(msg.sender, _hash, documents[_hash].name, documents[_hash].status);\n   }\n   \n   function refusedDoc(uint _hash) public onlyRegulators{\n       documents[_hash].status = 2;\n       docRefused(msg.sender, _hash, documents[_hash].name, documents[_hash].status);\n   }\n   \n   function getRole(address _address) view public returns (int){\n       return roles[_address];\n   } \n   \n   function getDoc(uint _hash) view public returns (string, uint, int, uint){\n       return (documents[_hash].name, documents[_hash].timestamp,documents[_hash].status, documents[_hash].originalDoc);\n   }\n}\n\n\n",
  "sourcePath": "/Projects/bnp/contracts/AssetManagement.sol",
  "compiler": {
    "name": "solc",
    "version": "0.4.19+commit.c4cbbb05.Emscripten.clang"
  },
  "schemaVersion": "1.0.1",
  "updatedAt": "2018-02-10T09:41:15.400Z"
}